{
  "contractName": "Wrestling",
  "abi": [
    {
      "inputs": [],
      "payable": false,
      "stateMutability": "nonpayable",
      "type": "constructor"
    },
    {
      "anonymous": false,
      "inputs": [
        {
          "indexed": false,
          "internalType": "uint256",
          "name": "wrestler1Deposit",
          "type": "uint256"
        },
        {
          "indexed": false,
          "internalType": "uint256",
          "name": "wrestler2Deposit",
          "type": "uint256"
        }
      ],
      "name": "EndOfRoundEvent",
      "type": "event"
    },
    {
      "anonymous": false,
      "inputs": [
        {
          "indexed": false,
          "internalType": "address",
          "name": "winner",
          "type": "address"
        },
        {
          "indexed": false,
          "internalType": "uint256",
          "name": "gains",
          "type": "uint256"
        }
      ],
      "name": "EndOfWrestlingEvent",
      "type": "event"
    },
    {
      "anonymous": false,
      "inputs": [
        {
          "indexed": false,
          "internalType": "address",
          "name": "wrestler1",
          "type": "address"
        },
        {
          "indexed": false,
          "internalType": "address",
          "name": "wrestler2",
          "type": "address"
        }
      ],
      "name": "WrestlingStartsEvent",
      "type": "event"
    },
    {
      "constant": true,
      "inputs": [],
      "name": "gameFinished",
      "outputs": [
        {
          "internalType": "bool",
          "name": "",
          "type": "bool"
        }
      ],
      "payable": false,
      "stateMutability": "view",
      "type": "function"
    },
    {
      "constant": true,
      "inputs": [],
      "name": "theWinner",
      "outputs": [
        {
          "internalType": "address",
          "name": "",
          "type": "address"
        }
      ],
      "payable": false,
      "stateMutability": "view",
      "type": "function"
    },
    {
      "constant": true,
      "inputs": [],
      "name": "wrestler1",
      "outputs": [
        {
          "internalType": "address",
          "name": "",
          "type": "address"
        }
      ],
      "payable": false,
      "stateMutability": "view",
      "type": "function"
    },
    {
      "constant": true,
      "inputs": [],
      "name": "wrestler1Played",
      "outputs": [
        {
          "internalType": "bool",
          "name": "",
          "type": "bool"
        }
      ],
      "payable": false,
      "stateMutability": "view",
      "type": "function"
    },
    {
      "constant": true,
      "inputs": [],
      "name": "wrestler2",
      "outputs": [
        {
          "internalType": "address",
          "name": "",
          "type": "address"
        }
      ],
      "payable": false,
      "stateMutability": "view",
      "type": "function"
    },
    {
      "constant": true,
      "inputs": [],
      "name": "wrestler2Played",
      "outputs": [
        {
          "internalType": "bool",
          "name": "",
          "type": "bool"
        }
      ],
      "payable": false,
      "stateMutability": "view",
      "type": "function"
    },
    {
      "constant": false,
      "inputs": [],
      "name": "registerAsAnOpponent",
      "outputs": [],
      "payable": false,
      "stateMutability": "nonpayable",
      "type": "function"
    },
    {
      "constant": false,
      "inputs": [],
      "name": "wrestle",
      "outputs": [],
      "payable": true,
      "stateMutability": "payable",
      "type": "function"
    },
    {
      "constant": false,
      "inputs": [],
      "name": "withdraw",
      "outputs": [],
      "payable": false,
      "stateMutability": "nonpayable",
      "type": "function"
    }
  ],
  "bytecode": "0x608060405234801561001057600080fd5b50336000806101000a81548173ffffffffffffffffffffffffffffffffffffffff021916908373ffffffffffffffffffffffffffffffffffffffff160217905550610af1806100606000396000f3fe6080604052600436106100865760003560e01c80639ede3858116100595780639ede38581461015a578063a8b42f1f14610189578063e2f0a978146101a0578063f0f32497146101f7578063f973728e1461022657610086565b806303cc55971461008b5780633ccfd60b146100955780639d24e482146100ac5780639e07f92a14610103575b600080fd5b610093610255565b005b3480156100a157600080fd5b506100aa6105a9565b005b3480156100b857600080fd5b506100c16106dd565b604051808273ffffffffffffffffffffffffffffffffffffffff1673ffffffffffffffffffffffffffffffffffffffff16815260200191505060405180910390f35b34801561010f57600080fd5b50610118610703565b604051808273ffffffffffffffffffffffffffffffffffffffff1673ffffffffffffffffffffffffffffffffffffffff16815260200191505060405180910390f35b34801561016657600080fd5b5061016f610729565b604051808215151515815260200191505060405180910390f35b34801561019557600080fd5b5061019e61073c565b005b3480156101ac57600080fd5b506101b561091d565b604051808273ffffffffffffffffffffffffffffffffffffffff1673ffffffffffffffffffffffffffffffffffffffff16815260200191505060405180910390f35b34801561020357600080fd5b5061020c610942565b604051808215151515815260200191505060405180910390f35b34801561023257600080fd5b5061023b610955565b604051808215151515815260200191505060405180910390f35b600460009054906101000a900460ff1615801561031657506000809054906101000a900473ffffffffffffffffffffffffffffffffffffffff1673ffffffffffffffffffffffffffffffffffffffff163373ffffffffffffffffffffffffffffffffffffffff1614806103155750600160009054906101000a900473ffffffffffffffffffffffffffffffffffffffff1673ffffffffffffffffffffffffffffffffffffffff163373ffffffffffffffffffffffffffffffffffffffff16145b5b610388576040517f08c379a000000000000000000000000000000000000000000000000000000000815260040180806020018281038252600f8152602001807f63616e206e6f742077726573746c65000000000000000000000000000000000081525060200191505060405180910390fd5b6000809054906101000a900473ffffffffffffffffffffffffffffffffffffffff1673ffffffffffffffffffffffffffffffffffffffff163373ffffffffffffffffffffffffffffffffffffffff16141561046b5760001515600160149054906101000a900460ff16151514610441576040517f08c379a0000000000000000000000000000000000000000000000000000000008152600401808060200182810382526000815260200160200191505060405180910390fd5b60018060146101000a81548160ff02191690831515021790555034600254016002819055506104f5565b60001515600160159054906101000a900460ff161515146104cf576040517f08c379a0000000000000000000000000000000000000000000000000000000008152600401808060200182810382526000815260200160200191505060405180910390fd5b60018060156101000a81548160ff02191690831515021790555034600354016003819055505b600160149054906101000a900460ff16801561051d5750600160159054906101000a900460ff165b156105a7576002600354026002541061055f5761055a6000809054906101000a900473ffffffffffffffffffffffffffffffffffffffff16610968565b6105a6565b60028054026003541061059c57610597600160009054906101000a900473ffffffffffffffffffffffffffffffffffffffff16610968565b6105a5565b6105a4610a41565b5b5b5b565b600460009054906101000a900460ff16801561061257503373ffffffffffffffffffffffffffffffffffffffff16600460019054906101000a900473ffffffffffffffffffffffffffffffffffffffff1673ffffffffffffffffffffffffffffffffffffffff16145b610684576040517f08c379a00000000000000000000000000000000000000000000000000000000081526004018080602001828103825260108152602001807f63616e206e6f742077697468647261770000000000000000000000000000000081525060200191505060405180910390fd5b6000600554905060006005819055503373ffffffffffffffffffffffffffffffffffffffff166108fc829081150290604051600060405180830381858888f193505050501580156106d9573d6000803e3d6000fd5b5050565b600460019054906101000a900473ffffffffffffffffffffffffffffffffffffffff1681565b600160009054906101000a900473ffffffffffffffffffffffffffffffffffffffff1681565b600160149054906101000a900460ff1681565b600073ffffffffffffffffffffffffffffffffffffffff16600160009054906101000a900473ffffffffffffffffffffffffffffffffffffffff1673ffffffffffffffffffffffffffffffffffffffff1614610800576040517f08c379a00000000000000000000000000000000000000000000000000000000081526004018080602001828103825260158152602001807f616c7265616479206861732077726573746c657232000000000000000000000081525060200191505060405180910390fd5b33600160006101000a81548173ffffffffffffffffffffffffffffffffffffffff021916908373ffffffffffffffffffffffffffffffffffffffff1602179055507fd4443f0433b17d5fcbda14745060c62f4fd645677efd560e394d49cc6b73b9e56000809054906101000a900473ffffffffffffffffffffffffffffffffffffffff16600160009054906101000a900473ffffffffffffffffffffffffffffffffffffffff16604051808373ffffffffffffffffffffffffffffffffffffffff1673ffffffffffffffffffffffffffffffffffffffff1681526020018273ffffffffffffffffffffffffffffffffffffffff1673ffffffffffffffffffffffffffffffffffffffff1681526020019250505060405180910390a1565b6000809054906101000a900473ffffffffffffffffffffffffffffffffffffffff1681565b600460009054906101000a900460ff1681565b600160159054906101000a900460ff1681565b6001600460006101000a81548160ff02191690831515021790555080600460016101000a81548173ffffffffffffffffffffffffffffffffffffffff021916908373ffffffffffffffffffffffffffffffffffffffff160217905550600354600254016005819055507f132c17ee6430a7c27424b2711c0e3f020ae13d9d62cfb347ae343c2180654bcb81600554604051808373ffffffffffffffffffffffffffffffffffffffff1673ffffffffffffffffffffffffffffffffffffffff1681526020018281526020019250505060405180910390a150565b6000600160146101000a81548160ff0219169083151502179055506000600160156101000a81548160ff0219169083151502179055507f4a06b026e39d5ecf4150ef1983227e240bcd23677c8d89479f9521c4e7bed63e600254600354604051808381526020018281526020019250505060405180910390a156fea265627a7a7231582026900d951aba69b990aa8b85823b16eafa93db4430e1f6f01bd2c6013709661264736f6c634300050c0032",
  "source": "pragma solidity >=0.4.21 <0.6.0;\r\n\r\ncontract Wrestling {\r\n    address public wrestler1;\r\n    address public wrestler2;\r\n\r\n    bool public wrestler1Played;\r\n    bool public wrestler2Played;\r\n\r\n    uint private wrestler1Deposit;\r\n    uint private wrestler2Deposit;\r\n\r\n    bool public gameFinished;\r\n    address public theWinner;\r\n    uint gains;\r\n\r\n    event WrestlingStartsEvent(address wrestler1, address wrestler2);\r\n    event EndOfRoundEvent(uint wrestler1Deposit, uint wrestler2Deposit);\r\n    event EndOfWrestlingEvent(address winner, uint gains);\r\n\r\n    constructor() public {\r\n        wrestler1 = msg.sender;\r\n    }\r\n\r\n    function registerAsAnOpponent() public {\r\n        require(wrestler2 == address(0), 'already has wrestler2');\r\n\r\n        wrestler2 = msg.sender;\r\n\r\n        emit WrestlingStartsEvent(wrestler1, wrestler2);\r\n    }\r\n\r\n    function wrestle() public payable {\r\n        require(!gameFinished && (msg.sender == wrestler1 || msg.sender == wrestler2), 'can not wrestle');\r\n\r\n        if (msg.sender == wrestler1) {\r\n            require(wrestler1Played == false, '');\r\n            wrestler1Played = true;\r\n            wrestler1Deposit = wrestler1Deposit + msg.value;\r\n        } else {\r\n            require(wrestler2Played == false, '');\r\n            wrestler2Played = true;\r\n            wrestler2Deposit = wrestler2Deposit + msg.value;\r\n        }\r\n        if (wrestler1Played && wrestler2Played) {\r\n            if (wrestler1Deposit >= wrestler2Deposit * 2) {\r\n                endOfGame(wrestler1);\r\n            } else if (wrestler2Deposit >= wrestler1Deposit * 2) {\r\n                endOfGame(wrestler2);\r\n            } else {\r\n                endOfRound();\r\n            }\r\n        }\r\n    }\r\n\r\n    function endOfRound() internal {\r\n        wrestler1Played = false;\r\n        wrestler2Played = false;\r\n\r\n        emit EndOfRoundEvent(wrestler1Deposit, wrestler2Deposit);\r\n    }\r\n\r\n    function endOfGame(address winner) internal {\r\n        gameFinished = true;\r\n        theWinner = winner;\r\n\r\n        gains = wrestler1Deposit + wrestler2Deposit;\r\n        emit EndOfWrestlingEvent(winner, gains);\r\n    }\r\n\r\n    function withdraw() public {\r\n        require(gameFinished && theWinner == msg.sender, 'can not withdraw');\r\n\r\n        uint amount = gains;\r\n\r\n        gains = 0;\r\n        msg.sender.transfer(amount);\r\n    }\r\n}",
  "sourcePath": "D:/Projects/blockchain-demo/truffle-demo/contracts/Wrestling.sol",
  "compiler": {
    "name": "solc",
    "version": "0.5.12+commit.7709ece9.Emscripten.clang"
  },
  "schemaVersion": "3.0.19",
  "updatedAt": "2019-11-14T23:47:15.593Z",
  "networkType": "ethereum",
  "devdoc": {
    "methods": {}
  },
  "userdoc": {
    "methods": {}
  }
}